{
  "contractName": "SimpleBank",
  "abi": [
    {
      "anonymous": false,
      "inputs": [
        {
          "indexed": false,
          "internalType": "address",
          "name": "accountAddress",
          "type": "address"
        },
        {
          "indexed": false,
          "internalType": "uint256",
          "name": "amount",
          "type": "uint256"
        }
      ],
      "name": "LogDepositMade",
      "type": "event"
    },
    {
      "anonymous": false,
      "inputs": [
        {
          "indexed": false,
          "internalType": "address",
          "name": "accountAddress",
          "type": "address"
        }
      ],
      "name": "LogEnrolled",
      "type": "event"
    },
    {
      "anonymous": false,
      "inputs": [
        {
          "indexed": false,
          "internalType": "address",
          "name": "accountAddress",
          "type": "address"
        },
        {
          "indexed": false,
          "internalType": "uint256",
          "name": "withdrawAmount",
          "type": "uint256"
        },
        {
          "indexed": false,
          "internalType": "uint256",
          "name": "newBalance",
          "type": "uint256"
        }
      ],
      "name": "LogWithdrawal",
      "type": "event"
    },
    {
      "payable": true,
      "stateMutability": "payable",
      "type": "fallback"
    },
    {
      "constant": true,
      "inputs": [
        {
          "internalType": "address",
          "name": "",
          "type": "address"
        }
      ],
      "name": "enrolled",
      "outputs": [
        {
          "internalType": "bool",
          "name": "",
          "type": "bool"
        }
      ],
      "payable": false,
      "stateMutability": "view",
      "type": "function"
    },
    {
      "constant": true,
      "inputs": [],
      "name": "owner",
      "outputs": [
        {
          "internalType": "address",
          "name": "",
          "type": "address"
        }
      ],
      "payable": false,
      "stateMutability": "view",
      "type": "function"
    },
    {
      "constant": true,
      "inputs": [],
      "name": "getBalance",
      "outputs": [
        {
          "internalType": "uint256",
          "name": "",
          "type": "uint256"
        }
      ],
      "payable": false,
      "stateMutability": "view",
      "type": "function"
    },
    {
      "constant": false,
      "inputs": [],
      "name": "enroll",
      "outputs": [
        {
          "internalType": "bool",
          "name": "",
          "type": "bool"
        }
      ],
      "payable": false,
      "stateMutability": "nonpayable",
      "type": "function"
    },
    {
      "constant": false,
      "inputs": [],
      "name": "deposit",
      "outputs": [
        {
          "internalType": "uint256",
          "name": "",
          "type": "uint256"
        }
      ],
      "payable": true,
      "stateMutability": "payable",
      "type": "function"
    },
    {
      "constant": false,
      "inputs": [
        {
          "internalType": "uint256",
          "name": "withdrawAmount",
          "type": "uint256"
        }
      ],
      "name": "withdraw",
      "outputs": [
        {
          "internalType": "uint256",
          "name": "",
          "type": "uint256"
        }
      ],
      "payable": true,
      "stateMutability": "payable",
      "type": "function"
    }
  ],
  "bytecode": "0x608060405233600260006101000a81548173ffffffffffffffffffffffffffffffffffffffff021916908373ffffffffffffffffffffffffffffffffffffffff16021790555034801561005157600080fd5b506106cd806100616000396000f3fe6080604052600436106100555760003560e01c806310eb0e0e1461005a57806312065fe0146100c35780632e1a7d4d146100ee5780638da5cb5b14610130578063d0e30db014610187578063e65f2a7e146101a5575b600080fd5b34801561006657600080fd5b506100a96004803603602081101561007d57600080fd5b81019080803573ffffffffffffffffffffffffffffffffffffffff1690602001909291905050506101d4565b604051808215151515815260200191505060405180910390f35b3480156100cf57600080fd5b506100d86101f4565b6040518082815260200191505060405180910390f35b61011a6004803603602081101561010457600080fd5b810190808035906020019092919050505061023a565b6040518082815260200191505060405180910390f35b34801561013c57600080fd5b506101456103cc565b604051808273ffffffffffffffffffffffffffffffffffffffff1673ffffffffffffffffffffffffffffffffffffffff16815260200191505060405180910390f35b61018f6103f2565b6040518082815260200191505060405180910390f35b3480156101b157600080fd5b506101ba61058a565b604051808215151515815260200191505060405180910390f35b60016020528060005260406000206000915054906101000a900460ff1681565b60008060003373ffffffffffffffffffffffffffffffffffffffff1673ffffffffffffffffffffffffffffffffffffffff16815260200190815260200160002054905090565b6000816000803373ffffffffffffffffffffffffffffffffffffffff1673ffffffffffffffffffffffffffffffffffffffff168152602001908152602001600020541161028657600080fd5b3373ffffffffffffffffffffffffffffffffffffffff166108fc839081150290604051600060405180830381858888f193505050501580156102cc573d6000803e3d6000fd5b506000826000803373ffffffffffffffffffffffffffffffffffffffff1673ffffffffffffffffffffffffffffffffffffffff168152602001908152602001600020540390507ff9226daf630542048a23086c6af599511aac100ec8f532793cc9697d061bed7e338483604051808473ffffffffffffffffffffffffffffffffffffffff1673ffffffffffffffffffffffffffffffffffffffff168152602001838152602001828152602001935050505060405180910390a16000803373ffffffffffffffffffffffffffffffffffffffff1673ffffffffffffffffffffffffffffffffffffffff16815260200190815260200160002054915050919050565b600260009054906101000a900473ffffffffffffffffffffffffffffffffffffffff1681565b600060011515600160003373ffffffffffffffffffffffffffffffffffffffff1673ffffffffffffffffffffffffffffffffffffffff16815260200190815260200160002060009054906101000a900460ff1615151461045157600080fd5b346000803373ffffffffffffffffffffffffffffffffffffffff1673ffffffffffffffffffffffffffffffffffffffff168152602001908152602001600020600082825401925050819055507fa8126f7572bb1fdeae5b5aa9ec126438b91f658a07873f009d041ae690f3a193336000803373ffffffffffffffffffffffffffffffffffffffff1673ffffffffffffffffffffffffffffffffffffffff16815260200190815260200160002054604051808373ffffffffffffffffffffffffffffffffffffffff1673ffffffffffffffffffffffffffffffffffffffff1681526020018281526020019250505060405180910390a16000803373ffffffffffffffffffffffffffffffffffffffff1673ffffffffffffffffffffffffffffffffffffffff16815260200190815260200160002054905090565b600060018060003373ffffffffffffffffffffffffffffffffffffffff1673ffffffffffffffffffffffffffffffffffffffff16815260200190815260200160002060006101000a81548160ff0219169083151502179055507f990c442e6adb818b8fa7db3cf1023decd07f7b66e5306928c7ed527d974192bb33604051808273ffffffffffffffffffffffffffffffffffffffff1673ffffffffffffffffffffffffffffffffffffffff16815260200191505060405180910390a1600160003373ffffffffffffffffffffffffffffffffffffffff1673ffffffffffffffffffffffffffffffffffffffff16815260200190815260200160002060009054906101000a900460ff1690509056fea265627a7a72315820f0ea56318e239a1292ed8e9bc552c2aad24326e780cd6a07a4fc2b3ddf9a6d2464736f6c63430005100032",
  "source": "/*\r\n * This exercise has been updated to use Solidity version 0.8.5\r\n * See the latest Solidity updates at\r\n * https://solidity.readthedocs.io/en/latest/080-breaking-changes.html\r\n */\r\n// SPDX-License-Identifier: MIT\r\npragma solidity >=0.5.16 <0.9.0;\r\n\r\ncontract SimpleBank {\r\n    /* State variables\r\n     */\r\n\r\n    mapping(address => uint256) internal balances;\r\n\r\n    mapping(address => bool) public enrolled;\r\n\r\n    address public owner = msg.sender;\r\n\r\n    /* Events - publicize actions to external listeners */\r\n\r\n    event LogEnrolled(address accountAddress);\r\n\r\n    event LogDepositMade(address accountAddress, uint256 amount);\r\n\r\n    event LogWithdrawal(address accountAddress, uint256 withdrawAmount, uint256 newBalance);\r\n\r\n    /* Functions\r\n     */\r\n\r\n    // Fallback function - Called if other functions don't match call or\r\n    // sent ether without data\r\n    // Typically, called when invalid data is sent\r\n    // Added so ether sent to this contract is reverted if the contract fails\r\n    // otherwise, the sender's money is transferred to contract\r\n\r\n    // TODO\r\n    function() external payable {\r\n        revert();\r\n    }\r\n\r\n    function getBalance() public view returns (uint256) {\r\n        return balances[msg.sender];\r\n    }\r\n\r\n\r\n    function enroll() public returns (bool) {\r\n        enrolled[msg.sender] = true;\r\n\r\n        emit LogEnrolled(msg.sender);\r\n\r\n        return enrolled[msg.sender];\r\n    }\r\n\r\n\r\n    function deposit() public payable returns (uint256) {\r\n        require(enrolled[msg.sender] == true);\r\n        balances[msg.sender] += msg.value;\r\n        emit LogDepositMade(msg.sender, balances[msg.sender]);\r\n        return balances[msg.sender];\r\n    }\r\n\r\n    /// @notice Withdraw ether from bank\r\n    /// @dev This does not return any excess ether sent to it\r\n    /// @param withdrawAmount amount you want to withdraw\r\n    /// @return The balance remaining for the user\r\n    function withdraw(uint256 withdrawAmount) public payable returns (uint256) {\r\n        require(balances[msg.sender] > withdrawAmount);\r\n        msg.sender.transfer(withdrawAmount);\r\n        uint256 newBalance = balances[msg.sender] - withdrawAmount;\r\n        emit LogWithdrawal(msg.sender, withdrawAmount, newBalance);\r\n        return balances[msg.sender];\r\n        \r\n        // return the user's balance.\r\n        // 1. Use a require expression to guard/ensure sender has enough funds\r\n        // 2. Transfer Eth to the sender and decrement the withdrawal amount from\r\n        //    sender's balance\r\n        // 3. Emit the appropriate event for this message\r\n    }\r\n}\r\n",
  "sourcePath": "C:\\Users\\User\\github-classroom\\ConsenSys-Academy-Github-Classroom\\simple-bank-exercise-saremeskandary\\contracts\\SimpleBank.sol",
  "compiler": {
    "name": "solc",
    "version": "0.5.16+commit.9c3226ce.Emscripten.clang"
  },
  "schemaVersion": "3.4.3",
  "updatedAt": "2021-10-06T19:50:38.372Z",
  "devdoc": {
    "methods": {
      "withdraw(uint256)": {
        "details": "This does not return any excess ether sent to it",
        "params": {
          "withdrawAmount": "amount you want to withdraw"
        },
        "return": "The balance remaining for the user"
      }
    }
  },
  "userdoc": {
    "methods": {
      "withdraw(uint256)": {
        "notice": "Withdraw ether from bank"
      }
    }
  }
}